{
  "_format": "hh-sol-artifact-1",
  "contractName": "Comments",
  "sourceName": "contracts/Comments.sol",
  "abi": [
    {
      "anonymous": false,
      "inputs": [
        {
          "components": [
            {
              "internalType": "uint32",
              "name": "id",
              "type": "uint32"
            },
            {
              "internalType": "string",
              "name": "topic",
              "type": "string"
            },
            {
              "internalType": "address",
              "name": "creator_address",
              "type": "address"
            },
            {
              "internalType": "string",
              "name": "message",
              "type": "string"
            },
            {
              "internalType": "uint256",
              "name": "created_at",
              "type": "uint256"
            }
          ],
          "indexed": false,
          "internalType": "struct Comments.Comment",
          "name": "comment",
          "type": "tuple"
        }
      ],
      "name": "CommentAdded",
      "type": "event"
    },
    {
      "inputs": [
        {
          "internalType": "string",
          "name": "topic",
          "type": "string"
        },
        {
          "internalType": "string",
          "name": "message",
          "type": "string"
        }
      ],
      "name": "addComment",
      "outputs": [],
      "stateMutability": "nonpayable",
      "type": "function"
    },
    {
      "inputs": [
        {
          "internalType": "string",
          "name": "topic",
          "type": "string"
        }
      ],
      "name": "getComments",
      "outputs": [
        {
          "components": [
            {
              "internalType": "uint32",
              "name": "id",
              "type": "uint32"
            },
            {
              "internalType": "string",
              "name": "topic",
              "type": "string"
            },
            {
              "internalType": "address",
              "name": "creator_address",
              "type": "address"
            },
            {
              "internalType": "string",
              "name": "message",
              "type": "string"
            },
            {
              "internalType": "uint256",
              "name": "created_at",
              "type": "uint256"
            }
          ],
          "internalType": "struct Comments.Comment[]",
          "name": "",
          "type": "tuple[]"
        }
      ],
      "stateMutability": "view",
      "type": "function"
    }
  ],
  "bytecode": "0x608060405234801561001057600080fd5b50610b13806100206000396000f3fe608060405234801561001057600080fd5b50600436106100365760003560e01c806370c63fcc1461003b578063ae5ff9051461006b575b600080fd5b610055600480360381019061005091906105fc565b610087565b60405161006291906108dd565b60405180910390f35b61008560048036038101906100809190610641565b6102b1565b005b60606000838360405161009b9291906108c4565b9081526020016040518091039020805480602002602001604051908101604052809291908181526020016000905b828210156102a557838290600052602060002090600502016040518060a00160405290816000820160009054906101000a900463ffffffff1663ffffffff1663ffffffff16815260200160018201805461012290610a0f565b80601f016020809104026020016040519081016040528092919081815260200182805461014e90610a0f565b801561019b5780601f106101705761010080835404028352916020019161019b565b820191906000526020600020905b81548152906001019060200180831161017e57829003601f168201915b505050505081526020016002820160009054906101000a900473ffffffffffffffffffffffffffffffffffffffff1673ffffffffffffffffffffffffffffffffffffffff1673ffffffffffffffffffffffffffffffffffffffff16815260200160038201805461020a90610a0f565b80601f016020809104026020016040519081016040528092919081815260200182805461023690610a0f565b80156102835780601f1061025857610100808354040283529160200191610283565b820191906000526020600020905b81548152906001019060200180831161026657829003601f168201915b50505050508152602001600482015481525050815260200190600101906100c9565b50505050905092915050565b60006040518060a00160405280600160009054906101000a900463ffffffff1663ffffffff16815260200186868080601f016020809104026020016040519081016040528093929190818152602001838380828437600081840152601f19601f8201169050808301925050505050505081526020013373ffffffffffffffffffffffffffffffffffffffff16815260200184848080601f016020809104026020016040519081016040528093929190818152602001838380828437600081840152601f19601f820116905080830192505050505050508152602001428152509050600085856040516103a49291906108c4565b908152602001604051809103902081908060018154018082558091505060019003906000526020600020906005020160009091909190915060008201518160000160006101000a81548163ffffffff021916908363ffffffff160217905550602082015181600101908051906020019061041f92919061050f565b5060408201518160020160006101000a81548173ffffffffffffffffffffffffffffffffffffffff021916908373ffffffffffffffffffffffffffffffffffffffff160217905550606082015181600301908051906020019061048392919061050f565b506080820151816004015550506001600081819054906101000a900463ffffffff16809291906104b290610a41565b91906101000a81548163ffffffff021916908363ffffffff160217905550507fe77ab75f376cc3dcd9506272f00c91ec2ff78acb373dc7b53aedecb1da2070228160405161050091906108ff565b60405180910390a15050505050565b82805461051b90610a0f565b90600052602060002090601f01602090048101928261053d5760008555610584565b82601f1061055657805160ff1916838001178555610584565b82800160010185558215610584579182015b82811115610583578251825591602001919060010190610568565b5b5090506105919190610595565b5090565b5b808211156105ae576000816000905550600101610596565b5090565b60008083601f8401126105c457600080fd5b8235905067ffffffffffffffff8111156105dd57600080fd5b6020830191508360018202830111156105f557600080fd5b9250929050565b6000806020838503121561060f57600080fd5b600083013567ffffffffffffffff81111561062957600080fd5b610635858286016105b2565b92509250509250929050565b6000806000806040858703121561065757600080fd5b600085013567ffffffffffffffff81111561067157600080fd5b61067d878288016105b2565b9450945050602085013567ffffffffffffffff81111561069c57600080fd5b6106a8878288016105b2565b925092505092959194509250565b60006106c283836107ac565b905092915050565b6106d381610981565b82525050565b60006106e482610931565b6106ee8185610954565b93508360208202850161070085610921565b8060005b8581101561073c578484038952815161071d85826106b6565b945061072883610947565b925060208a01995050600181019050610704565b50829750879550505050505092915050565b600061075a8385610976565b93506107678385846109cd565b82840190509392505050565b600061077e8261093c565b6107888185610965565b93506107988185602086016109dc565b6107a181610acc565b840191505092915050565b600060a0830160008301516107c460008601826108b5565b50602083015184820360208601526107dc8282610773565b91505060408301516107f160408601826106ca565b50606083015184820360608601526108098282610773565b915050608083015161081e60808601826108a6565b508091505092915050565b600060a08301600083015161084160008601826108b5565b50602083015184820360208601526108598282610773565b915050604083015161086e60408601826106ca565b50606083015184820360608601526108868282610773565b915050608083015161089b60808601826108a6565b508091505092915050565b6108af816109b3565b82525050565b6108be816109bd565b82525050565b60006108d182848661074e565b91508190509392505050565b600060208201905081810360008301526108f781846106d9565b905092915050565b600060208201905081810360008301526109198184610829565b905092915050565b6000819050602082019050919050565b600081519050919050565b600081519050919050565b6000602082019050919050565b600082825260208201905092915050565b600082825260208201905092915050565b600081905092915050565b600061098c82610993565b9050919050565b600073ffffffffffffffffffffffffffffffffffffffff82169050919050565b6000819050919050565b600063ffffffff82169050919050565b82818337600083830152505050565b60005b838110156109fa5780820151818401526020810190506109df565b83811115610a09576000848401525b50505050565b60006002820490506001821680610a2757607f821691505b60208210811415610a3b57610a3a610a9d565b5b50919050565b6000610a4c826109bd565b915063ffffffff821415610a6357610a62610a6e565b5b600182019050919050565b7f4e487b7100000000000000000000000000000000000000000000000000000000600052601160045260246000fd5b7f4e487b7100000000000000000000000000000000000000000000000000000000600052602260045260246000fd5b6000601f19601f830116905091905056fea2646970667358221220d18257b4c7c7b3f4b0c3c45a702e33017d23f2ce39ef9ea8ccb5b75fb36eee6e64736f6c63430008040033",
  "linkReferences": {},
  "deployedLinkReferences": {}
}